{
  "_format": "hh-sol-artifact-1",
  "contractName": "SupplyChain",
  "sourceName": "contracts/SuplyChain.sol",
  "abi": [
    {
      "anonymous": false,
      "inputs": [
        {
          "indexed": false,
          "internalType": "address",
          "name": "entityId",
          "type": "address"
        },
        {
          "indexed": false,
          "internalType": "string",
          "name": "entityMode",
          "type": "string"
        }
      ],
      "name": "AddEntity",
      "type": "event"
    },
    {
      "anonymous": false,
      "inputs": [
        {
          "indexed": false,
          "internalType": "uint256",
          "name": "vaccineBatchId",
          "type": "uint256"
        },
        {
          "indexed": true,
          "internalType": "address",
          "name": "manufacturer",
          "type": "address"
        }
      ],
      "name": "AddVaccineBatch",
      "type": "event"
    },
    {
      "anonymous": false,
      "inputs": [
        {
          "indexed": true,
          "internalType": "address",
          "name": "issuer",
          "type": "address"
        },
        {
          "indexed": true,
          "internalType": "address",
          "name": "prover",
          "type": "address"
        },
        {
          "indexed": false,
          "internalType": "uint256",
          "name": "certificateId",
          "type": "uint256"
        }
      ],
      "name": "IssuesCerticate",
      "type": "event"
    },
    {
      "inputs": [
        {
          "internalType": "string",
          "name": "brand",
          "type": "string"
        },
        {
          "internalType": "address",
          "name": "manufacturer",
          "type": "address"
        }
      ],
      "name": "AddVaccinBatch",
      "outputs": [
        {
          "internalType": "uint256",
          "name": "",
          "type": "uint256"
        }
      ],
      "stateMutability": "nonpayable",
      "type": "function"
    },
    {
      "inputs": [],
      "name": "MAX_CERTIFICATIONS",
      "outputs": [
        {
          "internalType": "uint256",
          "name": "",
          "type": "uint256"
        }
      ],
      "stateMutability": "view",
      "type": "function"
    },
    {
      "inputs": [
        {
          "internalType": "address",
          "name": "_id",
          "type": "address"
        },
        {
          "internalType": "string",
          "name": "_mode",
          "type": "string"
        }
      ],
      "name": "addEntity",
      "outputs": [],
      "stateMutability": "nonpayable",
      "type": "function"
    },
    {
      "inputs": [
        {
          "internalType": "uint256",
          "name": "",
          "type": "uint256"
        }
      ],
      "name": "certificateIds",
      "outputs": [
        {
          "internalType": "uint256",
          "name": "",
          "type": "uint256"
        }
      ],
      "stateMutability": "view",
      "type": "function"
    },
    {
      "inputs": [
        {
          "internalType": "uint256",
          "name": "",
          "type": "uint256"
        }
      ],
      "name": "certificates",
      "outputs": [
        {
          "internalType": "uint256",
          "name": "id",
          "type": "uint256"
        },
        {
          "components": [
            {
              "internalType": "address",
              "name": "id",
              "type": "address"
            },
            {
              "internalType": "enum SupplyChain.Mode",
              "name": "mode",
              "type": "uint8"
            },
            {
              "internalType": "uint256[]",
              "name": "certificateIds",
              "type": "uint256[]"
            }
          ],
          "internalType": "struct SupplyChain.Entity",
          "name": "issuer",
          "type": "tuple"
        },
        {
          "components": [
            {
              "internalType": "address",
              "name": "id",
              "type": "address"
            },
            {
              "internalType": "enum SupplyChain.Mode",
              "name": "mode",
              "type": "uint8"
            },
            {
              "internalType": "uint256[]",
              "name": "certificateIds",
              "type": "uint256[]"
            }
          ],
          "internalType": "struct SupplyChain.Entity",
          "name": "prover",
          "type": "tuple"
        },
        {
          "internalType": "bytes",
          "name": "signature",
          "type": "bytes"
        },
        {
          "internalType": "enum SupplyChain.Status",
          "name": "status",
          "type": "uint8"
        }
      ],
      "stateMutability": "view",
      "type": "function"
    },
    {
      "inputs": [
        {
          "internalType": "address",
          "name": "",
          "type": "address"
        }
      ],
      "name": "entities",
      "outputs": [
        {
          "internalType": "address",
          "name": "id",
          "type": "address"
        },
        {
          "internalType": "enum SupplyChain.Mode",
          "name": "mode",
          "type": "uint8"
        }
      ],
      "stateMutability": "view",
      "type": "function"
    },
    {
      "inputs": [
        {
          "internalType": "bytes32",
          "name": "message",
          "type": "bytes32"
        },
        {
          "internalType": "uint256",
          "name": "id",
          "type": "uint256"
        },
        {
          "internalType": "address",
          "name": "issuer",
          "type": "address"
        }
      ],
      "name": "isMatchingSignature",
      "outputs": [
        {
          "internalType": "bool",
          "name": "",
          "type": "bool"
        }
      ],
      "stateMutability": "view",
      "type": "function"
    },
    {
      "inputs": [
        {
          "internalType": "address",
          "name": "_issuer",
          "type": "address"
        },
        {
          "internalType": "address",
          "name": "_prover",
          "type": "address"
        },
        {
          "internalType": "string",
          "name": "_status",
          "type": "string"
        },
        {
          "internalType": "uint256",
          "name": "vaccineBatchId",
          "type": "uint256"
        },
        {
          "internalType": "bytes",
          "name": "signature",
          "type": "bytes"
        }
      ],
      "name": "issuesCertificate",
      "outputs": [
        {
          "internalType": "uint256",
          "name": "",
          "type": "uint256"
        }
      ],
      "stateMutability": "nonpayable",
      "type": "function"
    },
    {
      "inputs": [
        {
          "internalType": "uint256",
          "name": "",
          "type": "uint256"
        }
      ],
      "name": "vaccineBatchIds",
      "outputs": [
        {
          "internalType": "uint256",
          "name": "",
          "type": "uint256"
        }
      ],
      "stateMutability": "view",
      "type": "function"
    },
    {
      "inputs": [
        {
          "internalType": "uint256",
          "name": "",
          "type": "uint256"
        }
      ],
      "name": "vaccineBatches",
      "outputs": [
        {
          "internalType": "uint256",
          "name": "id",
          "type": "uint256"
        },
        {
          "internalType": "string",
          "name": "brand",
          "type": "string"
        },
        {
          "internalType": "address",
          "name": "manufacturer",
          "type": "address"
        }
      ],
      "stateMutability": "view",
      "type": "function"
    }
  ],
  "bytecode": "0x608060405234801561001057600080fd5b506127e6806100206000396000f3fe608060405234801561001057600080fd5b506004361061009e5760003560e01c8063506abb1111610066578063506abb1114610184578063663b3e22146101b457806370da933b146101e85780637aefaf3914610218578063b5bad46d146102485761009e565b806303a692b9146100a35780630f9c774d146100d55780631d8ee48a1461010557806345194c07146101365780634851a01d14610166575b600080fd5b6100bd60048036038101906100b891906118d5565b610264565b6040516100cc939291906119eb565b60405180910390f35b6100ef60048036038101906100ea91906118d5565b610336565b6040516100fc9190611a29565b60405180910390f35b61011f600480360381019061011a9190611a70565b61035a565b60405161012d929190611b14565b60405180910390f35b610150600480360381019061014b9190611b73565b6103ab565b60405161015d9190611be1565b60405180910390f35b61016e610733565b60405161017b9190611a29565b60405180910390f35b61019e60048036038101906101999190611d31565b610738565b6040516101ab9190611a29565b60405180910390f35b6101ce60048036038101906101c991906118d5565b6108f9565b6040516101df959493929190611f56565b60405180910390f35b61020260048036038101906101fd919061205f565b610baa565b60405161020f9190611a29565b60405180910390f35b610232600480360381019061022d91906118d5565b611158565b60405161023f9190611a29565b60405180910390f35b610262600480360381019061025d9190612112565b61117c565b005b600260205280600052604060002060009150905080600001549080600101805461028d9061219d565b80601f01602080910402602001604051908101604052809291908181526020018280546102b99061219d565b80156103065780601f106102db57610100808354040283529160200191610306565b820191906000526020600020905b8154815290600101906020018083116102e957829003601f168201915b5050505050908060020160009054906101000a900473ffffffffffffffffffffffffffffffffffffffff16905083565b6000818154811061034657600080fd5b906000526020600020016000915090505481565b60046020528060005260406000206000915090508060000160009054906101000a900473ffffffffffffffffffffffffffffffffffffffff16908060000160149054906101000a900460ff16905082565b600080600360008581526020019081526020016000206040518060a001604052908160008201548152602001600182016040518060600160405290816000820160009054906101000a900473ffffffffffffffffffffffffffffffffffffffff1673ffffffffffffffffffffffffffffffffffffffff1673ffffffffffffffffffffffffffffffffffffffff1681526020016000820160149054906101000a900460ff16600281111561046157610460611a9d565b5b600281111561047357610472611a9d565b5b8152602001600182018054806020026020016040519081016040528092919081815260200182805480156104c657602002820191906000526020600020905b8154815260200190600101908083116104b2575b5050505050815250508152602001600382016040518060600160405290816000820160009054906101000a900473ffffffffffffffffffffffffffffffffffffffff1673ffffffffffffffffffffffffffffffffffffffff1673ffffffffffffffffffffffffffffffffffffffff1681526020016000820160149054906101000a900460ff16600281111561055e5761055d611a9d565b5b60028111156105705761056f611a9d565b5b8152602001600182018054806020026020016040519081016040528092919081815260200182805480156105c357602002820191906000526020600020905b8154815260200190600101908083116105af575b50505050508152505081526020016005820180546105e09061219d565b80601f016020809104026020016040519081016040528092919081815260200182805461060c9061219d565b80156106595780601f1061062e57610100808354040283529160200191610659565b820191906000526020600020905b81548152906001019060200180831161063c57829003601f168201915b505050505081526020016006820160009054906101000a900460ff16600481111561068757610686611a9d565b5b600481111561069957610698611a9d565b5b8152505090508273ffffffffffffffffffffffffffffffffffffffff1681602001516000015173ffffffffffffffffffffffffffffffffffffffff16146106df57600080fd5b60006106ef868360600151611339565b905081602001516000015173ffffffffffffffffffffffffffffffffffffffff168173ffffffffffffffffffffffffffffffffffffffff1614925050509392505050565b600281565b600080600267ffffffffffffffff81111561075657610755611c06565b5b6040519080825280602002602001820160405280156107845781602001602082028036833780820191505090505b50905060006001805490509050600060405180608001604052808381526020018781526020018673ffffffffffffffffffffffffffffffffffffffff1681526020018481525090508060026000848152602001908152602001600020600082015181600001556020820151816001019080519060200190610806929190611715565b5060408201518160020160006101000a81548173ffffffffffffffffffffffffffffffffffffffff021916908373ffffffffffffffffffffffffffffffffffffffff160217905550606082015181600301908051906020019061086a92919061179b565b509050506001829080600181540180825580915050600190039060005260206000200160009091909190915055806040015173ffffffffffffffffffffffffffffffffffffffff167fe85391abb5e51659c581dd95107048251657ee66755655cc08c9c0ec3a0a913982600001516040516108e59190611a29565b60405180910390a281935050505092915050565b6003602052806000526040600020600091509050806000015490806001016040518060600160405290816000820160009054906101000a900473ffffffffffffffffffffffffffffffffffffffff1673ffffffffffffffffffffffffffffffffffffffff1673ffffffffffffffffffffffffffffffffffffffff1681526020016000820160149054906101000a900460ff16600281111561099d5761099c611a9d565b5b60028111156109af576109ae611a9d565b5b815260200160018201805480602002602001604051908101604052809291908181526020018280548015610a0257602002820191906000526020600020905b8154815260200190600101908083116109ee575b50505050508152505090806003016040518060600160405290816000820160009054906101000a900473ffffffffffffffffffffffffffffffffffffffff1673ffffffffffffffffffffffffffffffffffffffff1673ffffffffffffffffffffffffffffffffffffffff1681526020016000820160149054906101000a900460ff166002811115610a9657610a95611a9d565b5b6002811115610aa857610aa7611a9d565b5b815260200160018201805480602002602001604051908101604052809291908181526020018280548015610afb57602002820191906000526020600020905b815481526020019060010190808311610ae7575b50505050508152505090806005018054610b149061219d565b80601f0160208091040260200160405190810160405280929190818152602001828054610b409061219d565b8015610b8d5780601f10610b6257610100808354040283529160200191610b8d565b820191906000526020600020905b815481529060010190602001808311610b7057829003601f168201915b5050505050908060060160009054906101000a900460ff16905085565b600080600460008873ffffffffffffffffffffffffffffffffffffffff1673ffffffffffffffffffffffffffffffffffffffff1681526020019081526020016000206040518060600160405290816000820160009054906101000a900473ffffffffffffffffffffffffffffffffffffffff1673ffffffffffffffffffffffffffffffffffffffff1673ffffffffffffffffffffffffffffffffffffffff1681526020016000820160149054906101000a900460ff166002811115610c7257610c71611a9d565b5b6002811115610c8457610c83611a9d565b5b815260200160018201805480602002602001604051908101604052809291908181526020018280548015610cd757602002820191906000526020600020905b815481526020019060010190808311610cc3575b505050505081525050905060006002811115610cf657610cf5611a9d565b5b81602001516002811115610d0d57610d0c611a9d565b5b14610d1757600080fd5b6000600460008873ffffffffffffffffffffffffffffffffffffffff1673ffffffffffffffffffffffffffffffffffffffff1681526020019081526020016000206040518060600160405290816000820160009054906101000a900473ffffffffffffffffffffffffffffffffffffffff1673ffffffffffffffffffffffffffffffffffffffff1673ffffffffffffffffffffffffffffffffffffffff1681526020016000820160149054906101000a900460ff166002811115610dde57610ddd611a9d565b5b6002811115610df057610def611a9d565b5b815260200160018201805480602002602001604051908101604052809291908181526020018280548015610e4357602002820191906000526020600020905b815481526020019060010190808311610e2f575b505050505081525050905060016002811115610e6257610e61611a9d565b5b81602001516002811115610e7957610e78611a9d565b5b14610e8357600080fd5b6000610e8e87611411565b905060008080549050905060006040518060a00160405280838152602001868152602001858152602001888152602001846004811115610ed157610ed0611a9d565b5b815250905060008080549050908060018154018082558091505060019003906000526020600020016000909190919091505580600360006001600080549050610f1a91906121fe565b81526020019081526020016000206000820151816000015560208201518160010160008201518160000160006101000a81548173ffffffffffffffffffffffffffffffffffffffff021916908373ffffffffffffffffffffffffffffffffffffffff16021790555060208201518160000160146101000a81548160ff02191690836002811115610fad57610fac611a9d565b5b02179055506040820151816001019080519060200190610fce92919061179b565b50505060408201518160030160008201518160000160006101000a81548173ffffffffffffffffffffffffffffffffffffffff021916908373ffffffffffffffffffffffffffffffffffffffff16021790555060208201518160000160146101000a81548160ff0219169083600281111561104c5761104b611a9d565b5b0217905550604082015181600101908051906020019061106d92919061179b565b505050606082015181600501908051906020019061108c9291906117e8565b5060808201518160060160006101000a81548160ff021916908360048111156110b8576110b7611a9d565b5b02179055509050508973ffffffffffffffffffffffffffffffffffffffff168b73ffffffffffffffffffffffffffffffffffffffff167fe0e98da731fc57d449153e83c03b2eac272c8e07d18d0704fdb8e0e1f198cf4a600160008054905061112191906121fe565b60405161112e9190611a29565b60405180910390a3600160008054905061114891906121fe565b9550505050505095945050505050565b6001818154811061116857600080fd5b906000526020600020016000915090505481565b6000611187826115bd565b90506000600267ffffffffffffffff8111156111a6576111a5611c06565b5b6040519080825280602002602001820160405280156111d45781602001602082028036833780820191505090505b509050600060405180606001604052808673ffffffffffffffffffffffffffffffffffffffff16815260200184600281111561121357611212611a9d565b5b815260200183815250905080600460008773ffffffffffffffffffffffffffffffffffffffff1673ffffffffffffffffffffffffffffffffffffffff16815260200190815260200160002060008201518160000160006101000a81548173ffffffffffffffffffffffffffffffffffffffff021916908373ffffffffffffffffffffffffffffffffffffffff16021790555060208201518160000160146101000a81548160ff021916908360028111156112d0576112cf611a9d565b5b021790555060408201518160010190805190602001906112f192919061179b565b509050507ff5a37da00f0e4029ee2682b1919ee55d7e6f9d7492237aad9bd1aea7d53d487481600001518560405161132a929190612232565b60405180910390a15050505050565b600080600080611348856116e3565b92509250925060006040518060400160405280601c81526020017f19457468657265756d205369676e6564204d6573736167653a0a33320000000081525090506000818860405160200161139d9291906122bf565b604051602081830303815290604052805190602001209050600181868686604051600081526020016040526040516113d89493929190612312565b6020604051602081039080840390855afa1580156113fa573d6000803e3d6000fd5b505050602060405103519550505050505092915050565b600080826040516020016114259190612393565b604051602081830303815290604052805190602001209050600060405160200161144e906123f6565b604051602081830303815290604052805190602001209050600060405160200161147790612457565b60405160208183030381529060405280519060200120905060006040516020016114a0906124b8565b60405160208183030381529060405280519060200120905060006040516020016114c990612519565b60405160208183030381529060405280519060200120905060006040516020016114f29061257a565b6040516020818303038152906040528051906020012090508486141561152157600096505050505050506115b8565b8386141561153857600196505050505050506115b8565b8286141561154f57600296505050505050506115b8565b8186141561156657600396505050505050506115b8565b8086141561157d57600496505050505050506115b8565b6040517f08c379a00000000000000000000000000000000000000000000000000000000081526004016115af90612601565b60405180910390fd5b919050565b600080826040516020016115d19190612393565b60405160208183030381529060405280519060200120905060006040516020016115fa9061266d565b6040516020818303038152906040528051906020012090506000604051602001611623906126ce565b604051602081830303815290604052805190602001209050600060405160200161164c9061272f565b604051602081830303815290604052805190602001209050828414156116795760009450505050506116de565b8183141561168e5760019450505050506116de565b808414156116a35760029450505050506116de565b6040517f08c379a00000000000000000000000000000000000000000000000000000000081526004016116d590612790565b60405180910390fd5b919050565b600080600060418451146116f657600080fd5b6020840151915060408401519050606084015160001a92509193909250565b8280546117219061219d565b90600052602060002090601f016020900481019282611743576000855561178a565b82601f1061175c57805160ff191683800117855561178a565b8280016001018555821561178a579182015b8281111561178957825182559160200191906001019061176e565b5b509050611797919061186e565b5090565b8280548282559060005260206000209081019282156117d7579160200282015b828111156117d65782518255916020019190600101906117bb565b5b5090506117e4919061186e565b5090565b8280546117f49061219d565b90600052602060002090601f016020900481019282611816576000855561185d565b82601f1061182f57805160ff191683800117855561185d565b8280016001018555821561185d579182015b8281111561185c578251825591602001919060010190611841565b5b50905061186a919061186e565b5090565b5b8082111561188757600081600090555060010161186f565b5090565b6000604051905090565b600080fd5b600080fd5b6000819050919050565b6118b28161189f565b81146118bd57600080fd5b50565b6000813590506118cf816118a9565b92915050565b6000602082840312156118eb576118ea611895565b5b60006118f9848285016118c0565b91505092915050565b61190b8161189f565b82525050565b600081519050919050565b600082825260208201905092915050565b60005b8381101561194b578082015181840152602081019050611930565b8381111561195a576000848401525b50505050565b6000601f19601f8301169050919050565b600061197c82611911565b611986818561191c565b935061199681856020860161192d565b61199f81611960565b840191505092915050565b600073ffffffffffffffffffffffffffffffffffffffff82169050919050565b60006119d5826119aa565b9050919050565b6119e5816119ca565b82525050565b6000606082019050611a006000830186611902565b8181036020830152611a128185611971565b9050611a2160408301846119dc565b949350505050565b6000602082019050611a3e6000830184611902565b92915050565b611a4d816119ca565b8114611a5857600080fd5b50565b600081359050611a6a81611a44565b92915050565b600060208284031215611a8657611a85611895565b5b6000611a9484828501611a5b565b91505092915050565b7f4e487b7100000000000000000000000000000000000000000000000000000000600052602160045260246000fd5b60038110611add57611adc611a9d565b5b50565b6000819050611aee82611acc565b919050565b6000611afe82611ae0565b9050919050565b611b0e81611af3565b82525050565b6000604082019050611b2960008301856119dc565b611b366020830184611b05565b9392505050565b6000819050919050565b611b5081611b3d565b8114611b5b57600080fd5b50565b600081359050611b6d81611b47565b92915050565b600080600060608486031215611b8c57611b8b611895565b5b6000611b9a86828701611b5e565b9350506020611bab868287016118c0565b9250506040611bbc86828701611a5b565b9150509250925092565b60008115159050919050565b611bdb81611bc6565b82525050565b6000602082019050611bf66000830184611bd2565b92915050565b600080fd5b600080fd5b7f4e487b7100000000000000000000000000000000000000000000000000000000600052604160045260246000fd5b611c3e82611960565b810181811067ffffffffffffffff82111715611c5d57611c5c611c06565b5b80604052505050565b6000611c7061188b565b9050611c7c8282611c35565b919050565b600067ffffffffffffffff821115611c9c57611c9b611c06565b5b611ca582611960565b9050602081019050919050565b82818337600083830152505050565b6000611cd4611ccf84611c81565b611c66565b905082815260208101848484011115611cf057611cef611c01565b5b611cfb848285611cb2565b509392505050565b600082601f830112611d1857611d17611bfc565b5b8135611d28848260208601611cc1565b91505092915050565b60008060408385031215611d4857611d47611895565b5b600083013567ffffffffffffffff811115611d6657611d6561189a565b5b611d7285828601611d03565b9250506020611d8385828601611a5b565b9150509250929050565b611d96816119ca565b82525050565b611da581611af3565b82525050565b600081519050919050565b600082825260208201905092915050565b6000819050602082019050919050565b611de08161189f565b82525050565b6000611df28383611dd7565b60208301905092915050565b6000602082019050919050565b6000611e1682611dab565b611e208185611db6565b9350611e2b83611dc7565b8060005b83811015611e5c578151611e438882611de6565b9750611e4e83611dfe565b925050600181019050611e2f565b5085935050505092915050565b6000606083016000830151611e816000860182611d8d565b506020830151611e946020860182611d9c565b5060408301518482036040860152611eac8282611e0b565b9150508091505092915050565b600081519050919050565b600082825260208201905092915050565b6000611ee082611eb9565b611eea8185611ec4565b9350611efa81856020860161192d565b611f0381611960565b840191505092915050565b60058110611f1f57611f1e611a9d565b5b50565b6000819050611f3082611f0e565b919050565b6000611f4082611f22565b9050919050565b611f5081611f35565b82525050565b600060a082019050611f6b6000830188611902565b8181036020830152611f7d8187611e69565b90508181036040830152611f918186611e69565b90508181036060830152611fa58185611ed5565b9050611fb46080830184611f47565b9695505050505050565b600067ffffffffffffffff821115611fd957611fd8611c06565b5b611fe282611960565b9050602081019050919050565b6000612002611ffd84611fbe565b611c66565b90508281526020810184848401111561201e5761201d611c01565b5b612029848285611cb2565b509392505050565b600082601f83011261204657612045611bfc565b5b8135612056848260208601611fef565b91505092915050565b600080600080600060a0868803121561207b5761207a611895565b5b600061208988828901611a5b565b955050602061209a88828901611a5b565b945050604086013567ffffffffffffffff8111156120bb576120ba61189a565b5b6120c788828901611d03565b93505060606120d8888289016118c0565b925050608086013567ffffffffffffffff8111156120f9576120f861189a565b5b61210588828901612031565b9150509295509295909350565b6000806040838503121561212957612128611895565b5b600061213785828601611a5b565b925050602083013567ffffffffffffffff8111156121585761215761189a565b5b61216485828601611d03565b9150509250929050565b7f4e487b7100000000000000000000000000000000000000000000000000000000600052602260045260246000fd5b600060028204905060018216806121b557607f821691505b602082108114156121c9576121c861216e565b5b50919050565b7f4e487b7100000000000000000000000000000000000000000000000000000000600052601160045260246000fd5b60006122098261189f565b91506122148361189f565b925082821015612227576122266121cf565b5b828203905092915050565b600060408201905061224760008301856119dc565b81810360208301526122598184611971565b90509392505050565b600081905092915050565b600061227882611eb9565b6122828185612262565b935061229281856020860161192d565b80840191505092915050565b6000819050919050565b6122b96122b482611b3d565b61229e565b82525050565b60006122cb828561226d565b91506122d782846122a8565b6020820191508190509392505050565b6122f081611b3d565b82525050565b600060ff82169050919050565b61230c816122f6565b82525050565b600060808201905061232760008301876122e7565b6123346020830186612303565b61234160408301856122e7565b61234e60608301846122e7565b95945050505050565b600081905092915050565b600061236d82611911565b6123778185612357565b935061238781856020860161192d565b80840191505092915050565b600061239f8284612362565b915081905092915050565b7f4d414e5546414354555245440000000000000000000000000000000000000000600082015250565b60006123e0600c83612357565b91506123eb826123aa565b600c82019050919050565b6000612401826123d3565b9150819050919050565b7f44454c49564552494e475f494e5445524e4154494f4e414c0000000000000000600082015250565b6000612441601883612357565b915061244c8261240b565b601882019050919050565b600061246282612434565b9150819050919050565b7f53544f5245440000000000000000000000000000000000000000000000000000600082015250565b60006124a2600683612357565b91506124ad8261246c565b600682019050919050565b60006124c382612495565b9150819050919050565b7f44454c49564552494e475f4c4f43414c00000000000000000000000000000000600082015250565b6000612503601083612357565b915061250e826124cd565b601082019050919050565b6000612524826124f6565b9150819050919050565b7f44454c4956455245440000000000000000000000000000000000000000000000600082015250565b6000612564600983612357565b915061256f8261252e565b600982019050919050565b600061258582612557565b9150819050919050565b7f726563696576656420696e76616c69642063657274696669636174696f6e207360008201527f7461747573000000000000000000000000000000000000000000000000000000602082015250565b60006125eb60258361191c565b91506125f68261258f565b604082019050919050565b6000602082019050818103600083015261261a816125de565b9050919050565b7f4953535545520000000000000000000000000000000000000000000000000000600082015250565b6000612657600683612357565b915061266282612621565b600682019050919050565b60006126788261264a565b9150819050919050565b7f50524f5645520000000000000000000000000000000000000000000000000000600082015250565b60006126b8600683612357565b91506126c382612682565b600682019050919050565b60006126d9826126ab565b9150819050919050565b7f5645524946494552000000000000000000000000000000000000000000000000600082015250565b6000612719600883612357565b9150612724826126e3565b600882019050919050565b600061273a8261270c565b9150819050919050565b7f726563696576656420696e76616c696420656e74697479206e6f646500000000600082015250565b600061277a601c8361191c565b915061278582612744565b602082019050919050565b600060208201905081810360008301526127a98161276d565b905091905056fea26469706673582212209e5f9e1b06a8eaaf323fa573001107ba471ed6a32dff94aa3c455aa01f82105e64736f6c63430008090033",
  "linkReferences": {},
  "deployedLinkReferences": {}
}